:020000041000EA
:1000000000B5324B212058609868022188439860DF
:10001000D860186158612E4B002199600221596106
:100020000121F02299502B49196001219960352056
:1000300000F044F80222904214D00621196600F024
:1000400034F8196E01211966002018661A6600F04E
:100050002CF8196E196E196E052000F02FF8012189
:100060000842F9D1002199601B49196000215960AB
:100070001A491B48016001219960EB211966A021F2
:10008000196600F012F800219960164914480160C1
:100090000121996001BC002800D000471248134993
:1000A000086003C880F30888084703B5996A0420EC
:1000B0000142FBD001200142F8D103BD02B5186610
:1000C0001866FFF7F2FF186E186E02BD00000240BE
:1000D000000000180000070000035F00212200005C
:1000E000F4000018222000A00001001008ED00E03C
:1000F00000000000000000000000000074B24E7A12
:1001000000200420F7010010C3010010C5010010F9
:10011000C1010010C1010010C1010010C101001097
:10012000C1010010C1010010C1010010C701001081
:10013000C1010010C1010010C9010010CB01001065
:10014000CD010010CD010010CD010010CD01001037
:10015000CD010010CD010010CD010010CD01001027
:10016000CD010010CD010010CD010010CD01001017
:10017000CD010010CD010010CD010010CD01001007
:10018000CD010010CD010010CD010010CD010010F7
:10019000CD010010CD010010CD010010CD010010E7
:1001A000CD010010CD010010CD010010CD010010D7
:1001B000CD010010CD010010CD010010CD010010C7
:1001C00000BE00BE00BE00BE00BE00BEEFF3058054
:1001D000103800BEF2EB88718CA80010ACA800109B
:1001E0003402001090A31AE700201F49086006C8D7
:1001F00081F3088810471D48006800282FD10DA4FE
:100200000ECC002902D000F012F8F9E71849194A7B
:10021000002000E001C19142FCD1174988471749ED
:1002200088471749884700BEFDE701C901C29A42C5
:10023000FBD37047ACA80010C0000020481100207C
:1002400034B90010000004200000042034B900106C
:10025000001004200010042000000000704709482E
:1002600003F0E6FC0047000008ED00E0000000D0CD
:1002700048110020642000204D29001009030010BF
:100280000D2900105756000006005250ABB36053C2
:10029000809F001006005250861C0302909F0010A1
:1002A000060052505422A29DA89F001005005250F3
:1002B000DE65F46834B90010F8B5C0460648074951
:1002C000091A8B10C90FC91810B5491003D0044B77
:1002D000002B00D0984710BD481100204811002085
:1002E00000000000054B10B5002B03D00449054861
:1002F00000E000BFFFF7E2FF10BDC04600000000B5
:10030000F01D0020008D0010F0B5C64600B5A6B067
:1003100005F006FA134801F09EFD8422002105A88D
:1003200005F05CF805A800F0CFF92298239D249BE6
:10033000984604F0F7FD06000F000B4C404604F011
:10034000F1FD02900391281C04F0ECFD0090019156
:1003500032003B00200005F0D7F9692001F07BFD59
:10036000E3E7C04688130000008D0010F0B5C646D4
:1003700000B584B004000E0017001D0001F0C6FB9C
:100380008046E117FA2292000023200004F0F2FCDC
:1003900002000B00029501970096404601F0C8FC50
:1003A00004B080BCB846F0BD10B584B06B4619737C
:1003B0005A73054C00230093023303AA0100200066
:1003C00007F07CFF04B010BDE00B002070B584B0D6
:1003D00003AA6B231380114D2978114C0026009637
:1003E000693B200007F06AFF322001F034FD02AAC9
:1003F0000C4B1380297801230093200007F05EFF47
:1004000029780096012309226A44200007F056FF4C
:10041000322001F020FD04B070BDC046F80A002073
:10042000E00B00206B80FFFFF0B5CE46474680B55D
:1004300085B005002D4E3178F21C2D4F01239946D1
:100440000093380007F03AFF317802AC0023984659
:10045000009306332200380007F03CFF2278120296
:10046000637813432B84A2781202E37813436B84DE
:100470002279120263791343AB843178321D4B46E3
:100480000093380007F01AFF317843460093063393
:100490002200380007F01EFF22781202637813430F
:1004A000EB84A2781202E37813432B85227912029F
:1004B000637913436B853178721D4B460093380086
:1004C00007F0FCFE317843460093023322003800E7
:1004D00007F000FF23781B021BB262781343AB8541
:1004E00005B0C0BCB946B046F0BDC046F80A002011
:1004F000E00B0020F8B505000C001600022821D002
:10050000032821D001281BD000250027194B18787B
:1005100099793A00FFF748FF3571022C1CD015D8A5
:10052000002C1DD0012C1FD18025AD010827114BB7
:100530001878D9793A00FFF737FF34707580F8BD25
:100540000827E3E71027E1E71827DFE7032C0ED1A0
:1005500080252D011827EAE780256D011027E6E7A1
:1005600027008025ED01E2E72C000025DFE72C00C5
:100570000025DCE7F80A002010B50400254B1878A8
:10058000597B0622FFF710FF202C07D8002C16D02D
:10059000202C14D8A400204B1B599F46402C32D04D
:1005A000802C0CD11B4B1878997B8022FFF7FCFE26
:1005B00005E0184B1878997B0122FFF7F5FE10BD76
:1005C000144B1878997B0222FFF7EEFEF7E7114BE8
:1005D0001878997B0422FFF7E7FEF0E70D4B1878B7
:1005E000997B0822FFF7E0FEE9E70A4B1878997B30
:1005F0001022FFF7D9FEE2E7064B1878997B2022FC
:10060000FFF7D2FEDBE7034B1878997B4022FFF718
:10061000CBFED4E7F80A00200C8D0010F8B5DE46BA
:1006200057464E464546E0B5040000250026002703
:100630001BE02000FFF7F8FE2022A35E9B4422224D
:10064000A35E9A442422A35E62889B1AFF18262286
:10065000A35E99442822A35E98442A22A35EF6183A
:10066000142001F0F8FB0135EDB2C72DE1D9C82106
:10067000584603F009FB8346C821504603F004FBAB
:100680008246C821380003F0FFFA0700C821484617
:1006900003F0FAFA8146C821404603F0F5FA050056
:1006A000C821300003F0F0FA5B4663825346A38210
:1006B000E7824B4623836583A083F0BCBB46B246EA
:1006C000A946A046F8BD000010B504001A481B4911
:1006D00007F0D6FD03211A2000F0B8F903211B20F2
:1006E00000F0B4F9002201211A2000F0D9F900220B
:1006F00001211B2000F0D4F9200044300A2100F031
:100700006EF9200050300A2100F069F9FFF75EFE13
:100710000120FFF731FF220000210020FFF7EAFE51
:100720002000FFF77BFF064B0649C820220040420D
:10073000FFF71CFE10BDC046E00B0020801A06002B
:1007400050120020BD090010F8B5DE4657464E464F
:100750004546E0B50400344D2868344904F047FBB1
:10076000061CE36D9B463249181C04F040FB011C3B
:10077000301C04F021FB071C286068682B4904F03A
:1007800036FB061C236E9A462949181C04F02FFBE1
:10079000011C301C04F010FB061C6860A86823498B
:1007A00004F025FB8046636E99462149181C04F02D
:1007B0001EFB011C404604F0FFFA8046A860391C6D
:1007C000584604F0F4FA071C6067311C504604F0E8
:1007D000EEFA061CA0674146484604F0E8FA051CFC
:1007E000E0678023DB059846191C381C04F00AFDDD
:1007F000071C4146301C04F005FD011C381C04F0A8
:10080000DBFA061C4146281C04F0FCFC011C301CD1
:1008100004F0D2FA04F090FBE063F0BCBB46B246B1
:10082000A946A046F8BDC046D8190020CDCC4C3F03
:10083000CCCC4C3EF0B5C64600B50400FFF7F4FD45
:10084000208C638AC01A00B2E085668CA38AF61AEF
:1008500036B22686A58CE38AED1A2DB26586E38C26
:10086000228B9B1AA386238D628B9B1AE386638D52
:10087000A28B9B1A238704F0F9FA8046608804F063
:10088000EFFA071C011C404604F09BFAE0653000BB
:1008900004F0ECFA391C04F094FA2066280004F005
:1008A000E5FA391C04F08DFA60662000FFF74CFF72
:1008B000E16B2000443000F09DF83423E05E04F04A
:1008C000D5FA011C2000503000F094F880BCB846E6
:1008D000F0BD0000F8B5CE46474680B500AF060033
:1008E0004E23C35A5A1E9B000733DB08DB006946C0
:1008F000CB1A9D46E94693000733DB08DB006A46C6
:10090000D31A9D46E846002413E0736CA200D05829
:10091000651CAA00D15804F04FFA04F003FB234AE7
:10092000234B03F044FC03F0FBFCA4004B4618519E
:10093000ACB24E23F35A013B9C42E6DB002414E0A8
:10094000A5004B46E858631E9B004A46995804F0A0
:1009500033FA04F0E7FA174A174B03F028FC03F0C8
:10096000DFFC434658510134A4B24E23F55A023DF0
:10097000AC42E5DB0024002006E0A3004246995883
:1009800004F01AFA0134A4B2A542F6DC80243359EB
:10099000011C181C04F010FA30513000443000F0F3
:1009A0003FF8BD46C0BCB946B046F8BD3208AC1CE5
:1009B0005A64EF3F9A9999999999B93F10B544694A
:1009C0002000FFF737FF4823E25A0633E35A9A42E2
:1009D00001D0012010BD2000FFF77CFFF9E710B522
:1009E00004004181880004F0E7FC20600023E380DC
:1009F000238110BD70B504000268C3889B00D150EC
:100A0000C08801306589290003F03EF9E180A388A0
:100A100001339BB2A3809D4201D20023A38070BD0D
:100A200000238380C38003817047000010B51D2818
:100A300000D810BD024B034A0348AC2101F06AFF05
:100A4000908D00106C8E0010A08D001070B5040009
:100A50000D00FFF7EBFF1F2D12D8A3000B4A9446A1
:100A600063441A6840214A4080311140802252017B
:100A700013431960E400064B9C466444656070BDF6
:100A8000044B054A0548222101F044FF04C00140FF
:100A900000400140F08D0010588E0010188E00109C
:100AA00070B504000E001500FFF7C0FFA4000B4B4B
:100AB0009C466444002E0DD00823002D0CD0042247
:100AC0001343226853400C221A4080235B012343C6
:100AD0001A6070BD0023F0E70022F1E704C0014076
:100AE000034B1B6802201840431E9841C0B2704758
:100AF00000C00640EFF3108072B6034B1B68002B5A
:100B0000FBD0BFF35F8F70472C0100D0BFF35F8F26
:100B1000024B00221A6080F3108870472C0100D02D
:100B2000F8B506000C001500FFF7E4FFE308F7181E
:100B3000F15C07222240012393400B4205D1DBB236
:100B40000B433B70FFF7E2FFF8BD2100280001F0E6
:100B500079FFF0B583B00600019114001F00FFF784
:100B6000C9FF00E00134BC420CD8E308F518F35C7F
:100B70000721214001228A401A42F3D1D2B21A43FE
:100B80002A7001E001246442FFF7C0FF002C02DB61
:100B9000200003B0F0BD019B002BF9D0089801F0B4
:100BA00051FF0000002307E0054A9A189200BFF3A6
:100BB0005F8F0021116001331F2BF5D97047C046AC
:100BC00040000034054A1078431CDBB21370172B29
:100BD00002D9130010221A707047C046070B00207C
:100BE00010B582B00100054C054B00931F2318225D
:100BF0002000FFF7AEFF02B010BDC0463419002040
:100C0000808E0010074B9B68103080001950BFF396
:100C10005F8FBFF35F8F044B0021196082F3108850
:100C20007047C04600ED00E0240100D010B51F2839
:100C300000D810BD024B034A0348832101F06AFE2D
:100C40009C8E0010BC910010AC8E001010B5038873
:100C5000DA0A1C2A05D15B055B1502335B00C0185C
:100C600010BD034B034A0448B12101F053FEC046B6
:100C7000FC8E001078910010148F001010B5091A26
:100C80000B1F0A4A88180A4A904208D8C90706D496
:100C90005B105B055B0D0748184380B210BD064B27
:100CA000064A0748A32101F035FEC046FC070000B4
:100CB000FE0F000000E0FFFF548F00106C91001049
:100CC000148F001010B5091A04394A08090B08D10D
:100CD0004905490D064B0B430380064B13434380E4
:100CE00010BD054B054A0648AB2101F013FEC04676
:100CF00000F0FFFF00F8FFFF848F0010409100100C
:100D0000148F001010B50400FFF790FF0123A340DB
:100D1000034A10681840431E9841C0B210BDC04637
:100D200000E100E0002904D0034B1860034B186079
:100D30007047034B1860FBE780E200E000E100E051
:100D400080E100E070B504000D00FFF76FFF0120A7
:100D5000A0402900FFF7E6FF70BD000010B50400B9
:100D6000FFF764FF0123A340014A136010BDC04692
:100D700000E200E010B50400FFF758FF024B9B684B
:100D80001034A400E05810BD00ED00E010B50400E0
:100D9000FFF74CFF2000FFF7EDFF002805D0054BC3
:100DA000C01A2F2803D8012010BD0020FCE7002026
:100DB000FAE7C046080B002070B504000D00FFF7ED
:100DC00035FFEFF3108672B60C4B1B68002BFBD07F
:100DD000BFF35F8F2000FFF7CDFF094B984201D092
:100DE000A84205D1320029002000FFF70BFF70BD9B
:100DF000044B054A0548862101F08CFD240100D0F2
:100E0000CD010010948F0010A0910010148F0010DD
:100E1000F0B5DE4657464E464546E0B589B08146B8
:100E200001911500FFF702FFEFF3108A72B66D4BC8
:100E30001B68002BFBD0BFF35F8F6B4B00269E57C8
:100E4000002E41DB7400A419A4006848241806226F
:100E5000A256654B1A70664B9A684B4610339B003E
:100E6000D35898461F00181A2F2839D9614B984536
:100E700030D105AF604B3B80604973009B469819A9
:100E800080005A4B984640440230FFF7F7FE7880C6
:100E90005B4BBB80FF23BB71FD71019B079333004C
:100EA0005B449B00434407CF07C301231C43A04678
:100EB000524641464846FFF7A5FE09B0F0BCBB4686
:100EC000B246A946A046F0BD4E4B4F4A4F48D721E7
:100ED00001F020FD4E4B4C4A4C48DE2101F01AFD3A
:100EE00001380C2102F0F8FE002912D101239F43A2
:100EF000BB463B000027DA79AA4211D90621595690
:100F000000290CDB4A005218920038491F008B1848
:100F1000F1E7404B3C4A3D48EA2101F0FBFC1F0051
:100F2000002F2ED005AB3C4A1A80813A5A80062306
:100F3000FB560293002B17DA384805AB9B46988086
:100F4000029A9A71DD71019A0792381D2100FFF70C
:100F500095FEB880BE71254B7200921992009B18C5
:100F60005A4613CA13C3A3E7381DFFF76FFE0100EB
:100F70007000801980001D4BC0180430FFF77EFE02
:100F8000DBE705AF1C4B3B801C49730002939B19A8
:100F90009B00164A90461A0042440392901CFFF7A9
:100FA0006DFE7880039A101D5946FFF767FEB880E2
:100FB0001B4B5A464146521A524153431B0DBB71BB
:100FC000FD71019A0792029B9B199B00434407CF36
:100FD00007C3114B5A461380813B538001231C43A6
:100FE000A04665E7240100D05D200020080B00200A
:100FF00000ED00E0CD01001000A1FFFF380B002044
:1010000001BDFFFFCC8F001088910010148F0010DD
:10101000F48F00101C9000100148000001BD00007A
:10102000AAAA0000F0B5CE46474680B583B00600B8
:101030000D00EFF3108872B64F4B1B68002BFBD0EE
:10104000BFF35F8F4D4B9A6834001034A300D7581C
:101050004B4B9F4207D0AF4200D18BE00197494BE9
:10106000FB1A2F2B09D9424639003000FFF7CAFD81
:1010700003B0C0BCB946B046F0BD3000FFF742FE39
:10108000814600213000FFF75DFEBFF35F8FEFF375
:101090000581002901D08C4211D10123019C9C4380
:1010A0000020A368AB4212D00622A256002A0DDB14
:1010B00053009B189B00334A2000D418F1E7324BB1
:1010C000324A36213248FF3101F024FC2000AB4285
:1010D00049D106256557002D2BDB2A4B6A00521992
:1010E00092009B189A68A260DA79E2719B795BB2F0
:1010F000A371002B0FDA2748A080224B6A005219F7
:1011000092009B18244A1178997115704946300055
:10111000FFF718FEA7E7680040198000194BC018B8
:101120000430FFF793FD0100231D1800FFF7A6FD13
:10113000E2E7002912D100280ED0FF238371174B5C
:10114000838015490B78A3710E4A154BA41A64418C
:1011500063431B0D0B70D9E7094FF2E71149201DBE
:10116000FFF7B0FDD2E7104B084A6A210848FF316B
:1011700001F0D0FB024F76E7240100D000ED00E043
:10118000CD010010080B0020909000105891001025
:10119000148F001001BD00005D20002001BDFFFF85
:1011A000AAAA0000420B0020C490001070B50122D2
:1011B00002432E4BD31A2F2B28D8EFF30583002B95
:1011C0002BD0EFF3108C72B6294909680029FBD0A7
:1011D000BFF35F8F254C274905002D1B6D416943E7
:1011E000090D4CB2244989689B00C95891421BD013
:1011F0000021032932D81D4B4A00521892009B1837
:101200009B795BB2A3421FD00131F2E71B4B1C4A12
:10121000C7211C48490001F07DFB1B4B184A922155
:101220001848FF3101F076FB134A92681749D150F4
:10123000174B1A7882711C70BFF35F8F0C4B002222
:101240001A608CF3108870BD084B4A005518AD0029
:101250005D19FF26AE710F4AAA80E9E70E4B084AD6
:10126000D1210848490001F055FBC046080B002079
:10127000240100D0AAAA000000ED00E0CC900010EC
:1012800024910010148F0010F4900010CD01001074
:101290005D20002001BDFFFF009100100022044BE3
:1012A00002E0044902C30132072AFAD97047C04656
:1012B00000E400E08080808010B582B00100074C1F
:1012C000074B0093052300222000FFF742FC002873
:1012D00001DB1F23181A02B010BDC0466220002097
:1012E0000891001010B51F2905D8064B9C46614493
:1012F0008900016010BD044B044A05480A2101F031
:1013000009FBC04640000034CC9100101892001038
:10131000DC91001010B5002B02DB0260436010BDB1
:10132000024B034A03483F2101F0F4FA24920010D3
:10133000389300104092001070B582B0060014007F
:101340001D00FA22920000230698002103F012FDEE
:1013500002000B0012196B41002B09DB6846FFF7F6
:10136000D9FF009A019B32607360300002B070BDFB
:1013700001225242004BF1E7FFFFFF7F10B582B020
:10138000040000F0FDFD02000B006846FFF7C2FFFD
:10139000009A019B22606360200002B010BD30B54E
:1013A00085B004000D0002A8FFF7E8FF029A039B36
:1013B00000952000FFF7C0FF200005B030BD10B53C
:1013C0000400FFF7FFFB01002000FFF78BFFFF2366
:1013D0002371BFF35F8F10BD10B50400FFF7F2FB60
:1013E00001002000FFF77EFFFF23237100236371BC
:1013F000BFF35F8F10BD000010B51F2907D8074B42
:101400009C46614489000160BFF35F8F10BD044BAF
:10141000044A0548EF2101F07DFAC046400000343F
:1014200050930010B49300106493001010B50400A2
:101430000120FFF7D5FB01002000FFF7DDFF10BD05
:10144000084B5B6A994209D8064A926A824207D2DF
:10145000994201D0012002E0002000E00020704706
:101460000120FCE70040054010B500290AD00368C0
:101470001B7B8B4206D38068054B9C466144090167
:10148000401810BD034B044A04483C2101F042FAC5
:10149000FFFFFF0FC89300102C970010EC93001073
:1014A000F8B504001700FFF7DFFF0668456839004C
:1014B0002000FFF7D9FF026843680120AB4201D842
:1014C00002D00020C0B2F8BDB242FBD8F9E700005C
:1014D00010B5002B02DB0260436010BD024B034AD3
:1014E00003483F2101F016FA24920010F8960010EC
:1014F0004092001010B582B00400049805991218AB
:101500004B41002B09DB6846FFF7E2FF009A019B85
:1015100022606360200002B010BD01225242014BE4
:10152000F1E7C046FFFFFF7F10B5002908D0037B1D
:101530008B4205D300684B005B18033BC01810BDFD
:10154000024B034A0348682101F0E4F92494001097
:10155000D49600104094001010B5437B8B4201D10B
:10156000012010BDFFF7E0FF8378002B01D10020A0
:10157000F7E70120F5E770B50400857B002D01D168
:10158000280070BD2900FFF7CFFF4378A373002B1D
:1015900000D1E3730023837043700370F0E7000011
:1015A000F8B506000C001500FFF7BEFF0700002C81
:1015B0000DD0002D11D0AC4215D029003000FFF71E
:1015C000B3FF84703B78002B13D13D70F8BD0A4BFC
:1015D0000A4A0B486F2101F09DF90A4B074A084857
:1015E000702101F097F9084B044A0548712101F078
:1015F00091F943703D70E9E78C940010B0960010AB
:101600004094001098940010A494001070B5060047
:101610000D001400002914D0002A14D043688068FB
:101620009847002806D0220029003000FFF7B8FFB5
:10163000280007E02A0021003000FFF7B1FF20005A
:1016400000E0100070BD0800FCE7000070B5040069
:101650000D1E0CD0FFF768FF0023837043700370EA
:10166000617B2A002000FFF7D1FF607370BD034B40
:10167000034A0448A52101F04DF9C0460495001025
:10168000C49600104094001070B504000D1E0FD0D9
:10169000FFF762FF00280BD1E17B00290ED1A37B6D
:1016A000002B03D1E37B002B0DD1A573E57370BD37
:1016B000084B094A0948F62101F02CF92000FFF7F0
:1016C00033FF4570EBE7064B034A0448FB2101F06A
:1016D00021F9C046BC940010A09600104094001060
:1016E000E094001010B5002907D003681B7B8B42E3
:1016F00003D3C0680139401810BD034B034A0448A6
:10170000412101F007F9C046C89300108C960010E3
:10171000EC93001010B50C00CB68834207D10B6925
:1017200008009847002809D02068616810BD064B62
:10173000064A52210648FF3101F0ECF80023E3602D
:1017400000200021F2E7C046F49400102C9600100F
:10175000EC93001070B505000C00080000F0EEFCE2
:101760000D49200000F02CFCFFF72CFA1F280CD8A4
:101770000A4BC3189B006B602C75D0231B061B788B
:101780006B75074BA400E55070BD064B064A074831
:10179000EF2101F0BFF8C046BD1800104000003432
:1017A000101E0020509300107896001064930010D3
:1017B0000A4B1A68EFF3108172B61368002BFCD045
:1017C000BFF35F8F054B1B68BFF35F8F00221A606A
:1017D00081F3108840BF0020002170472C2000209A
:1017E00010B582B0040000F0CBFB02000B0068468D
:1017F000FFF76EFE009A019B22606360200002B03A
:1018000010BD70B584B0040016001D0002A8FFF7DB
:10181000E7FF029A039B009601952000FFF76AFEFE
:10182000200004B070BD0000F0B583B00700019245
:101830001D000AAB1C780BAB1E78002C0BD0006887
:101840002100FFF789FE002809D0194B194A1A48D0
:10185000672101F05FF80068FFF78DFE0400002C9F
:1018600002D1200003B0F0BD21003800FFF7FCFDDD
:10187000019B03604560089B8360099BC3603868D7
:101880002100FFF7E3FEA042EBD1387D019A2B0047
:1018900000F0E0FB051E01D0002E04D00C9B002BB5
:1018A000DFD01D70DDE73868210000F0A1FDF5E70D
:1018B00008950010E0960010EC930010F0B5DE469D
:1018C00057464E464546E0B58FB00B900021794B08
:1018D0008200D458894683E029002000FFF7C4FD28
:1018E000804602684368921BBB41002B09DD4346DA
:1018F0001A685B680B9800F0ADFB00239846002641
:101900008AE0002B01D1002AF1D10021584600F0D5
:1019100065FD0700A84215D143461A685B68089226
:10192000099343469E68DB689846002E10D0290034
:101930002000FFF7D7FE037899461B021F4327615B
:10194000002069E05C4B5D4A5D488E2100F0E2FFBB
:101950005C4B5A4A5A48922100F0DCFF2369002B65
:1019600000D177E0BB4219D1069807990023424283
:101970008B4100920193089A099B0CA8FFF7BAFDCE
:101980000C9A0D9B0021049101310391029541466F
:10199000019100962000FFF747FF16E04A4B474AA7
:1019A0004748A12100F0B6FF069A079B002B01D102
:1019B000002A52D120682900FFF766FE2900200086
:1019C000FFF790FE03780133037000232361626800
:1019D000BFF35F8F13608AF310880120002861D065
:1019E0000CA8FFF7FDFE0C9E0D9F0022002308921D
:1019F00009936268EFF3108A72B61368002BFCD06B
:101A0000BFF35F8F23689B465D7B002D00D063E7AB
:101A100000239846002600206368BFF35F8F0022F2
:101A20001A608AF31088002ED8D04B461F022F432D
:101A300041463800B047069007916268EFF3108A7C
:101A400072B61368002BFCD0BFF35F8F079B002B8F
:101A500000DA83E7079B002BA6DD2369002BA9D0C2
:101A6000BB4219D10CA8FFF7BBFE0C9A0D9B069840
:101A70000799009001910CA8FFF73CFD0C9A0D9B73
:101A80000021049101310391029541460191009694
:101A90002000FFF7C9FE98E70B4B084A0848A4212D
:101AA00000F038FF0FB0F0BCBB46B246A946A046D6
:101AB000F0BDC046101E0020309500101097001099
:101AC000EC930010489500105495001010B50C4B85
:101AD0005B68002B04D00B480A21FFF703FC10BD04
:101AE000074C094A20682300102100F0D3FB032093
:101AF00000F038FA03212000FFF72CFEEBE7C04688
:101B0000500B00202C200020A114001010B5064B13
:101B10005B68002B01D0044810BD044B044A054803
:101B20005E2100F0F7FEC046500B0020909500109B
:101B300060960010EC930010F0B5DE4657464E4616
:101B40004546E0B58DB0060090461F00169B9A46AC
:101B5000179B994618AB1B780793272302AA944634
:101B6000634400221A7021E001003000FFF7BAFD43
:101B700000783CE00698002B5CD0079B002B59D0E6
:101B80004946D04704000D0003000B4359D00029FB
:101B900040DB08A8FFF724FE089A099B00940195F2
:101BA00008A8FFF7A7FC089B9846099F7268EFF307
:101BB000108B72B6136859424B41D9B20691002B73
:101BC000F8D1BFF35F8F273302AA9446634404938E
:101BD0000023039302934B460193534600934246DE
:101BE0003B003000FFF720FE0400051EBCD17368E7
:101BF000BFF35F8F002119608BF31088002D17D081
:101C0000272302AA944663441B78002BB2D100021A
:101C10002043B0E700236242AB4100920193424669
:101C20003B0008A8FFF766FC089B9846099FBDE7A4
:101C3000012040420DB0F0BCBB46B246A946A046CA
:101C4000F0BD0698F6E7F0B5C64600B584B00500CD
:101C5000884616001F000AAB1C78FFF757FF029456
:101C6000019700962A004346FFF766FF04B080BC48
:101C7000B846F0BDF0B5C64600B505000C1E42D012
:101C80004268EFF3108772B61368002BFCD0BFF3E5
:101C90005F8FE6B22B68984631001800FFF75CFCB6
:101CA00000282AD02B69A34213D0240AE4B23100C1
:101CB0002800FFF717FD0378A34211D000206B68BE
:101CC000BFF35F8F00221A6087F3108880BCB8468C
:101CD000F0BD0E4B0E4A2C210E48FF3100F01AFECB
:101CE0003100404600F084FB0028E8D10A4B084A46
:101CF00099210848490000F00DFE2B69A342DED16E
:101D000000232B61DBE70020E0E7C046B49500101C
:101D100048960010EC930010D895001010B5040000
:101D2000FFF7F4FE2100FFF7A5FF10BD407D7047CF
:101D3000F0B587B00500100019000E9C13000B438E
:101D400001D101200021A5600C9B2361206061600E
:101D50000D9B6361CE1737007040020071400B008D
:101D6000921BBB4104A8FFF74CFD049A059B01217F
:101D700002910194044900912800FFF7DDFEE06024
:101D8000C043C00F07B0F0BD1517001030B587B0C5
:101D900004000D00EFF30583002B20D106225242F0
:101DA000D31712196B418B4202D803D1824201D959
:101DB0000022002304A8FFF78BFB02A8FFF710FD09
:101DC00002980399049A059B121A8B41002B0BDC95
:101DD00008D02000290000F0DFF807B030BD14481B
:101DE00000F030FE002AF4D0124A0498059900232E
:101DF0000093FFF728FF002813DAEAE70E4B1A6872
:101E0000EFF3108172B61368002BFCD0BFF35F8F25
:101E1000094B1B68BFF35F8F00221A6081F31088A3
:101E200020BF04980599FFF70BFB0028E6D0D0E708
:101E3000DC950010B11700102C20002000B583B0F5
:101E400002000B006846FFF7DCFC00980199FFF7E1
:101E50009DFF03B000BD10B5FA22920000230021BF
:101E600002F088FFFFF7EAFF10BD000030B583B035
:101E700005000C00EFF30583002B0FD10B4A002364
:101E80000093FFF7E0FE00280BDD20BFFFF746FFC1
:101E900028002100FFF7D4FA03B030BDFFF7D0FAD5
:101EA000FAE728002100FFF7CBFAF5E7B117001099
:101EB00010B5032800D810BD024B034A0348362151
:101EC00000F028FD38970010489800104C9700103B
:101ED00070B5EFF30584103C2000FFF7E9FFEFF346
:101EE000108072B6194B1B68002BFBD0BFF35F8FBD
:101EF00001221300A34016494B6316490B60164993
:101F000009780D00E5402A4213D0114A556A134A58
:101F1000A600B258954205D3114AB2580E4D9943C6
:101F2000297007E00A4A231D9B0099589950002206
:101F300000E00022BFF35F8F044B0021196080F3A3
:101F40001088002A01D02000904770BD280100D0E1
:101F5000004005403C7005406120002038200020F2
:101F60001C18002010B50400FFF7A2FF024A034826
:101F70002100FEF7D5FD10BDA09700105C200020C9
:101F8000044B5B6A034A906A1900536A9942F9D17B
:101F90007047C04600400540084B5B6A01E0074BB4
:101FA0005B6A8B42FBD301E0044B5B6A8B4203D13B
:101FB000024B9B6A8342F7D37047C04600400540FE
:101FC00070B504000E00FFF773FFEFF3108572B6D3
:101FD0001B4B1B68002BFBD0BFF35F8F002E1CD068
:101FE0002000FEF7C7FE174B83420BD019002000DC
:101FF000FEF7E2FE01212000FEF7A4FE0123A3402C
:10200000114A1360114BA400E650BFF35F8F0C4BD5
:1020100000221A6085F3108870BD0C4BA2000021CD
:10202000D1500122A2400A490B7893430B70054915
:102030002000FEF7F7FF00212000FEF783FEE4E713
:10204000280100D0D11E0010386005401C18002067
:1020500061200020F0B5DE4600B584B00400150014
:1020600001921E000293FFF78BFF03958E4202D868
:102070004ED185424CD9EFF3108B72B6274B1B68BB
:10208000002BFBD0BFF35F8F254A17780125A540B1
:10209000EBB23B431370234B5D63221D9200019909
:1020A000D150214AA100029888501B6A2B4212D1BC
:1020B0001C4B1B6C2B4208D00020BFF35F8F174BCB
:1020C00000221A608BF3108823E0184B184A194835
:1020D000C52100F01FFCFFF753FF8E4214D802D138
:1020E000039B834210D80E4B1B78BB420ED00D4B86
:1020F0001D625D631F222240012393400E4A13603C
:10210000074B1F700120D8E70020D6E70120D4E755
:10211000012004B080BCBB46F0BDC046280100D001
:10212000612000200040054038200020C4970010A6
:102130002C980010E897001080E200E010B5040031
:10214000FFF7B6FEEFF3108072B60B4B1B68002B47
:10215000FBD0BFF35F8F0123A340084A13620849F5
:102160000A789A430A70BFF35F8F034B00221A600C
:1021700080F3108810BDC046280100D00040054003
:102180006120002010B5002908D0037B8B4205D3C5
:1021900000684B005B18033BC01810BD024B034A9C
:1021A0000348682100F0B6FB2494001098990010B1
:1021B00040940010F8B506000C001500FFF7E2FF90
:1021C0000700002C0DD0002D11D0AC4215D02900F5
:1021D0003000FFF7D7FF84703B78002B13D13D70A0
:1021E000F8BD0A4B0A4A0B486F2100F093FB0A4BDB
:1021F000074A0848702100F08DFB084B044A054847
:10220000712100F087FB43703D70E9E78C9400106A
:10221000849900104094001098940010A494001029
:1022200070B506000D001400002914D0002A14D047
:10223000436880689847002806D0220029003000B3
:10224000FFF7B8FF280007E02A0021003000FFF761
:10225000B1FF200000E0100070BD0800FCE770B581
:1022600005000023437301338373037BC37301248D
:1022700006E021002800FFF785FF0134E4B2447036
:10228000297BA142F5D82800FFF77CFF002343708B
:1022900070BD000010B54C1EFE2C05D801734260C5
:1022A0008360FFF7DCFF10BD024B034A0348142193
:1022B00000F030FB68980010A4990010AC98001052
:1022C000F0B5C64600B505000C1E03D1200080BC49
:1022D000B846F0BDFFF756FF4678002EF6D0310025
:1022E0002800FFF74FFF47780023984643702100EE
:1022F0002800FFF747FF43464370320021002800C3
:10230000FFF78EFF040039002800FFF7D9FF020015
:1023100021002800FFF784FF0400D7E7F0B5C64688
:1023200000B504000D001700002927D0FFF72AFF91
:102330004378002B28D18378002B2BD10178200003
:10234000FFF7BEFF06008046002F0AD0E17B002980
:1023500026D1A37B002B03D1E37B002B25D1A573D2
:10236000E5734346002B26D129002000FFF70AFF22
:1023700000234370300080BCB846F0BD114B124AB8
:102380001248382100F0C6FA114B0F4A0F483A2183
:1023900000F0C0FA0F4B0C4A0C483B2100F0BAFA8F
:1023A0002000FFF7EFFE4570D3E70B4B064A0748C6
:1023B000422100F0AFFA31002000FFF7E3FE0023D6
:1023C0008370D1E7E498001070990010AC98001069
:1023D000EC98001014990010E094001070B50400FF
:1023E0000A00457B2900FFF799FF6073280070BD44
:1023F00070B506000C1E40D0437B8B4207D0FFF720
:10240000C1FE05008178002906D1002036E00121B7
:10241000FFF7E4FF012031E03000FFF7B3FE017861
:10242000A1420DD03000FFF7ADFE4178A1420AD0A5
:102430000029F7D1124B134A13486B3100F06AFAA6
:102440006B78037001E06B7843700023AB706B70A6
:10245000012221003000FFF761FF0200717B814201
:1024600005D03000FFF7DCFE7073012006E0074B5B
:10247000044A0548712100F04DFA002070BDC046A5
:102480000091001058990010AC9800103899001075
:10249000F8B5DE4657464E464546E0B506000F0005
:1024A00015000A9A934250D31A0E92461B02984680
:1024B0000A9A00234046514601F04CFC81467400C4
:1024C000A419A4002F4B9C4664446368834200D245
:1024D0006060331FDBB29B46012B3CD9C0239B01BC
:1024E0002343802212011A60274BB200D1580029E1
:1024F00007D0586901F0F0FB013043001B18033B83
:10250000FDD26D0123685D40E0222A4080235B01FB
:1025100023431A605A46012A28D980239B0123436A
:10252000802212011A604B4663604A4600234046EF
:10253000514601F00FFC144BB60098510120F0BC3D
:10254000BB46B246A946A046F8BD104B104A1148FA
:10255000332100F0DFF9012FC0D1C0239B012343B9
:1025600003221A60A368DB07FCD5CAE7216879401B
:1025700003220A401A60A3680125BD401D42FAD01B
:10258000CBE7C0460080004038190020B899001001
:10259000109A0010CC99001030B583B00C2000F0D8
:1025A00011F9FEF79DFA00280DD0002304E02E4A11
:1025B00099002E4888500133092BF8D92A4B2C4A10
:1025C0005A6203B030BD2B4B00229A6700F06CF9C1
:1025D000294B01221A60274B5B6C012BFBD1274B47
:1025E00003221A60234B9B6B012BFBD10133009319
:1025F0000433234A0121234800F054F805230093B3
:10260000214A0121214800F04DF8214B009300227E
:1026100002210420FFF73CFF1E4D00952B000022F5
:1026200001210520FFF734FF104C00942300002205
:1026300000210720FFF72CFF009423000022002137
:102640000820FFF725FF0A4B0093230000220021FA
:102650000920FFF71DFF00952B0000220021062016
:10266000FFF716FFADE7C04638190020006CDC020A
:102670001BB70000008000403CB0004030B000407C
:10268000002F685900800240008C864700C002403D
:10269000001BB70040597307014B8000C0587047BA
:1026A00038190020F0B5C64600B504000E0017002A
:1026B0001D00374801F010FB8046364BFA18364BA8
:1026C0009A4239D80100380001F006FB0200103AA6
:1026D00098235B009A4235D86B1E062B38D8069B90
:1026E000013B062B34D83F09474537D32D04069BC1
:1026F0001B031D432368002B36DB284B9C4244D030
:1027000080235B01264A1360264A1360264A92689A
:1027100019009143FAD12660A060221DC0239B01BD
:10272000134321221A602268002AFCDAE56008229D
:102730001A6080BCB846F0BD1C4B1D4A1D481121D3
:1027400000F0E8F81C4B1A4A1A48192100F0E2F888
:102750001A4B174A17481C2100F0DCF8184B144A92
:102760001448232100F0D6F822683F231340B342D7
:10277000C3D1A3681B051B0D8342BED1E368EE22C3
:10278000D2021340AB42B8D1D3E780239B01B9E713
:10279000001BB70080E84BD380F8A93200C002408C
:1027A00000E0004000F0004000C00040209A00100F
:1027B000449B0010809A0010C09A0010DC9A001010
:1027C000289B001080239B000343014AD36270477B
:1027D00000800540024B1A68024B5A607047C046A1
:1027E000E81D00200080054010B5174B8022D2055F
:1027F0001A60164B164A1A6000290AD0154BE022BF
:10280000D2041A60002809D1124B802212061A60E5
:1028100010BD0D4BE022D2041A60F3E743011B1AEE
:102820009B00181800010C4B186080235B04984231
:1028300002D3094B094A1A60FFF7CCFF054B8022EF
:10284000D2051A60E4E7C04600B005400820014008
:10285000FCFF010000A00540E81D0020FFFFFF0075
:1028600010B5030010000C4A8024E4051460002B0E
:102870000DD001221343094A094CD461094C5C4034
:102880001462516293620021FFF7AEFF10BD034B4B
:102890000022DA61F7E7C04600B00540008005403D
:1028A000D3C007B02D3FF84F064BAA2212011A6081
:1028B0002F22DA60044B054A1A60024B5B68002B3A
:1028C000FBDA7047004002400060024000B0FA00AE
:1028D00000BEFDE703000A4A1268002A08D0084A31
:1028E0001068C318074A9A4206D3054A1360704716
:1028F000034A05491160F2E701204042F7E7C0466C
:10290000E4190020000004206420002010B5FFF727
:10291000DFFF000030B583B00D001900002A0BD096
:10292000074B084C019200932B000200200002F09C
:10293000EBFE0120FFF7CCFF034B1A00F1E7C04686
:10294000509B0010609B00105C9B001070B52B4BDF
:102950002B4A1A602B4B2C4A1A602C4B9A682A4B34
:102960009343FAD12A4C01E008CC9847294B9C426A
:10297000FAD3FFF711FE234B274A1A60234B9B68BB
:10298000DB43DB01FAD1254B40229A675A671A676D
:10299000DA66234C09E0234B234A24488721FFF7BA
:1029A000B9FF2000FEF70BFD0834214B9C4209D2F1
:1029B0002368002BF5D0012BEDD12000FEF70CFD94
:1029C0000834F2E71B4DA9681B4CC022200002F01E
:1029D0000BFDAC60EFF30583002B00D000BEFEF7CB
:1029E000E1F8FEF75BFCFFF771F8144C01E008CC4E
:1029F0009847134B9C42FAD370BDC04600E000409C
:102A0000BFCDFBFE00F00040FE7F3C0000C0004058
:102A10003011002040110020FFFFFF0100F00140B5
:102A200028110020909B0010049C0010B09B001007
:102A30003011002000ED00E00000002040110020D7
:102A4000481100200FB400B583B0084802F02CFEF6
:102A5000049B002B07D005A90191180002F034FE59
:102A6000034802F021FE0120FFF732FFF49B001023
:102A7000088D0010704710B5002802D00B68496817
:102A8000984710BD0100002007E083001B185B0081
:102A9000501C08601078C01830380A681378303B32
:102AA000DBB2092BF1D97047F0B5DE4657464E46EA
:102AB0004546E0B583B093461F000C9B9A460D9C9B
:102AC0000E9B99460F9B9B0703D0B8460F0006004C
:102AD00022E00192A34688464E46B9460700B4421A
:102AE00007D2551C4B4641462020B84701342A00E6
:102AF000F5E73D004F465C46019B9B46B146464686
:102B0000B84637002E0007E0013C551C5346185DBF
:102B100043463900B0472A00002CF5D135003E006D
:102B200047460F9B9B0707D4100003B0F0BCBB4681
:102B3000B246A946A046F0BDB0464E46B9462F0063
:102B40005D46531BB342EFD2541C4B4641462020F6
:102B5000B8472200F5E7F0B5CE46474680B585B0C8
:102B6000944698460C9D0D9C0EAB1B789946109A86
:102B7000119B129EB7071CD4002B0CD0F7070AD567
:102B80004F46002F02D10C37374204D0013B02E000
:102B900030272F550134944201D21F2CF8D9F70762
:102BA00007D59C4205D21F2C03D830272F5501345E
:102BB000F5E7F70612D5770505D4002C03D094422B
:102BC00021D09C421FD00F9A102A32D00F9A022A8D
:102BD00037D01F2C0AD830222A5501341F2C05D893
:102BE0004A46002A33D02D222A55013403960293F7
:102BF0000194009543466246FFF756FF05B0C0BCFE
:102C0000B946B046F0BD621E012C10D00F9F102FA8
:102C10000BD014000F9A102AD8D1B206D6D51F2C8B
:102C2000D4D858222A550134D3E7023CCBE714000C
:102C3000C9E7B206EED41F2CECD878222A5501340D
:102C4000C7E71F2CD2D860322A550134C1E772077A
:102C500003D52B222A550134C8E73207C6D52022D6
:102C60002A550134C2E7F0B5DE4657464E46454682
:102C7000E0B593B081468A46089209931CAB10CB0D
:102C80001B789B461E9D219B9846002C03D1102348
:102C900042469A4390468023DB0046461E40424609
:102CA0001A4212D0002C22D000260EE03033D9B2C6
:102CB000771C0AAB99552900200001F00DF8AC42B1
:102CC00016D31F2F14D83E0004002900200001F065
:102CD00003F8CBB2092BE9D94246920605D541212A
:102CE000C918C9B20A39C9B2E2E76121F8E7270079
:102CF00043460693209B05931F9B049303955B46D5
:102D0000029301970AAB0093099B089A51464846E3
:102D1000FFF721FF13B0F0BCBB46B246A946A04660
:102D2000F0BDF0B5DE4657464E464546E0B597B095
:102D30000A900B910C929A46209B9946219F22AAB9
:102D400013789B46249B0993259C289B98464A46CA
:102D50003A4302D11032934398468022D20045462E
:102D60001540434613420AD04A463A4341D0002513
:102D70002E0053460D934D46099B9A461BE02E00AC
:102D800053460D934D46099B9A4614E03033DAB210
:102D9000731C99460EAB9A55524623002800390001
:102DA00000F0D8FFBC4226D819D04B461F2B1CD8A8
:102DB0004E4605000F00524623002800390000F05F
:102DC000C9FFD3B2092BE1D94246920605D541226B
:102DD000D218D2B20A3AD2B2DAE76122F8E7AA45AB
:102DE000E3D94E460D9B9A4608E04E460D9B9A4607
:102DF00004E0002602E04E460D9B9A4643460693A9
:102E0000279B0593269B0493099B03935B460293A0
:102E100001960EAB009353460C9A0B990A98FFF754
:102E20009AFE17B0F0BCBB46B246A946A046F0BD1C
:102E3000F0B5DE4657464E464546E0B591B0804671
:102E400089460C929A461A9C1B9D22002B0020005A
:102E5000290001F00AFA002800D0ECE001225242D9
:102E6000D44B2000290001F0FBF9002800D0E2E05B
:102E700001225242D04B2000290001F0DBF900284A
:102E800000D0D8E0002200232000290001F0D2F970
:102E9000002800D0E4E0069407958023DB001E9A0A
:102EA0001A400D921E9A1A4201D106231C930698CD
:102EB000079902000B000892099303000A000243DD
:102EC00000D1D9E0080D4005400DBC4EB446604429
:102ED0000A03120B1E00BA4B13431F0001F0D8F96E
:102EE000B84AB94B01F063F9B84AB94B01F038F967
:102EF000089009910022B74B3000390001F027F902
:102F0000B54AB64B01F053F902000B000898099935
:102F100001F026F901F0D4F9834601F0B9F9060071
:102F20000F00AF4AAF4B01F042F90022AE4B01F067
:102F300017F901F0C5F90890AC4AAD4B30003900E3
:102F400001F035F906000F00089801F0A1F9A94A2F
:102F5000A94B01F02CF902000B003000390001F000
:102F6000F6F806000F0002000B0001F020F90A90AD
:102F70000B91089BA14A94466344002100220891CA
:102F800009921B0509930023089332003B0030008F
:102F9000390001F0E5F80E900F9132003B0000205F
:102FA0008021C90501F0D3F806000F000022944BE0
:102FB0000A980B9901F0DDF80022924B01F0D0F84D
:102FC00002000B000A980B9901F0D3F800228E4BF7
:102FD00001F0C6F802000B000A980B9901F0C9F83D
:102FE00002000B003000390001F0BAF802000B00BB
:102FF0000E980F9901F0BDF80022714B01F0B0F866
:10300000089A099B01F0D3F806000F00089609976B
:10301000069A079B01F024F900282FD001235B4278
:103020009C46E3440022774B3000390001F0A1F8C0
:103030000890099122E01E9B04931D9B03931C9B07
:1030400002930094019553460C9A4946404600F07D
:10305000FFF811B0F0BCBB46B246A946A046F0BD91
:103060000021002206910792069480231B069C46AD
:10307000AC446346079310E700239B465B466333EB
:10308000C62B20D804261E9B1B0528D5089A099B11
:10309000190011430FD05D4A5D4B0698079901F066
:1030A000D7F800287AD000225A4B0698079901F0E9
:1030B000C1F8002872D01C9B5B4506DD5A469B1A5E
:1030C000013B1C9303E00526DDE700231C938023CE
:1030D000DB001E9A1A431E92002600239B461D9B6E
:1030E0009E4265D29F1B02231E9A1A400A921E9A84
:1030F000134202D0002E00D000275B46002B07D0E1
:10310000089A099B0698079901F033F806900791F1
:10311000002200232000290001F08CF8002800D0B4
:103120007CE03D4B1E9A1340049303971C9B029333
:10313000069B079C0093019453460C9A49464046CF
:1031400000F086F8002E00D183E71E9B9B0671D508
:103150004525441C5346020049462800C0475A46AC
:10316000D317D2185A4005230593013E0496002335
:1031700003930A3302935B46DB0F0193009253469D
:10318000220049464046FFF76EFD0A9B002B00D106
:103190005FE7020047460C9E1D9D53E01C9B002BE1
:1031A0009DD00D9B002B9AD01C9B013B1C9396E756
:1031B000002798E7FFFFEF7FFFFFEFFF01FCFFFF16
:1031C0000000F03FFB799F501344D33FB3C8608B9E
:1031D000288AC63F0000F83F61436F63A787D23F4C
:1031E00071A379094F930A400000E03F1655B5BB23
:1031F000B16B0240EF39FAFE422EE63FFF030000BA
:1032000000002C4000002440000018402D431CEB1F
:10321000E2361A3F80842E41FFF7FFFF069C079D90
:103220002200290080200006844661440B0006929B
:10323000079376E765258CE7541C534649462020C2
:10324000B8472200931BAB42F6D3100001E7C046FB
:10325000F0B5DE4657464E464546E0B595B0069079
:10326000079193469946209F1E9A1F9B10001900B4
:1032700000F0FBFF002831D101225242BF4B1E98C3
:103280001F9900F0D7FF002837D101225242BC4BD2
:103290001E981F9900F0E4FF00283DD10022B94B91
:1032A0001E981F9900F0DCFF002850D10022B64B79
:1032B0001E981F9900F0BEFF002848D1002200236D
:1032C0001E981F9900F0B6FF002850D100239846A1
:1032D000229B5B0500D4B6E0002458E0229B0393B8
:1032E000219B029303230193A84B00934B465A461C
:1032F00007990698FFF7D8FB0EE1229B0393219BC9
:10330000029304230193A24B00934B465A4607991C
:103310000698FFF7C9FBFFE00423229A1A4022997E
:103320000B4210D09B4B002A0FD00422229903910C
:1033300021990291019200934B465A4607990698AB
:10334000FFF7B2FBE8E0944BEDE70322EEE7229BA8
:103350000493219B039302971E9B1F9C009301944F
:103360004B465A4607990698FFF762FDD4E01E9A2D
:103370001F9B0020002100F0EAFE1E901F910123F8
:103380009846A5E70CAB30221A55013F01341F2C9B
:1033900001D8092FF6D81E981F9900F091FF05005B
:1033A00000F076FF02000B001E981F9900F0CFFE80
:1033B0007A4BFA009B181A685B680A920B9300F02C
:1033C000F6FE0890099100F09FFF060000F05CFFF8
:1033D00002000B000898099900F0B9FE08900991C5
:1033E00000226F4B00F03CFF00282ED00136300049
:1033F00000F04AFF02000B000A980B9900F020FF32
:10340000002801D001350026002F2CD1280000F023
:103410003FFF02000B001E981F9900F098FE060067
:103420000F0000225E4B00F005FF002846D100226D
:103430005B4B3000390000F013FF00283ED1EB0752
:103440003CD501353AE0062746E70022544B089860
:10345000099900F0EFFE0028D6D1002E01D0F30725
:10346000D2D50136D0E7AA461F2C11D8013F0A2138
:10347000300000F031FC651C30310CAB19550A21CD
:10348000300000F029FC092E0ED906002C00EBE7D5
:1034900055461F2C0CD87B1E002F09D00CAA3021BA
:1034A00011551F000134F4E72B0055461C00F0E7CE
:1034B0001F2C03D80CAB2E221A5501341F2C10D808
:1034C0000A21280000F0E0FB661C30310CAB1955D6
:1034D0000A21280000F0D8FB051E01D03400EDE7DA
:1034E00034000323229A1340012B1CD01F2C06D832
:1034F0004346002B32D00CAB2D221A550134229BAF
:103500000393219B029301940CAB00934B465A46C4
:1035100007990698FFF7C8FA15B0F0BCBB46B2464B
:10352000A946A046F0BD219B002B13D04346002B9B
:1035300002D10C3313420FD0219B013B2193190080
:1035400003E00CAB30221A5501348C42CED21F2C32
:10355000F7D9CBE72199F8E72199F6E7229B5B079A
:1035600004D50CAB2B221A550134C8E7229B1B074C
:10357000C5D50CAB20221A550134C0E7FFFFEFFF81
:10358000FFFFEF7F65CDCD4165CDCDC1209C001003
:10359000249C0010149C00101C9C0010C89D00105E
:1035A0000000E03FF0B5DE4657464E464546E0B5E2
:1035B00093B08246884693461193002900D106E3D2
:1035C00000255646119B1878002800D102E32528D3
:1035D00009D06C1C5B462A004146B047119B013361
:1035E00011932500EEE701331193002720E001231A
:1035F0001F4301321192012418E002231F430132BC
:103600001192012412E004231F430132119201247C
:103610000CE008231F4301321192012406E010231D
:103620001F4301321192012400E00024002C09D034
:10363000119A1378203BD9B21029F6D88B00C449CF
:10364000CB589F46119B1A781300303BDBB2092BF5
:1036500010D92A2A13D00B94119B1A782E2A1ED027
:10366000119A1378683BD9B2122959D88B00B949FD
:10367000CB589F4611A8FFF705FA0B90ECE71C9B6F
:103680001A1D1C921B68002B04DB0B93119B01334A
:103690001193E1E7022217435B420B93F6E7802286
:1036A000D20017435A1C11925A781300303BDBB2F8
:1036B000092B0BD92A2AD3D11C9B1A1D1C921C68DA
:1036C000002C08DB119B01331193C9E711A8FFF708
:1036D000D9F90400C4E70024F4E780235B003B43EE
:1036E000511C119151786C2901D01F0018E0C023A2
:1036F0009B001F430232119212E080233B43511C76
:1037000011915178682901D01F0009E0C0231F439F
:103710000232119204E080235B001F4301321192B8
:10372000119B1878672816D8252826D30300253B37
:10373000DAB2422A21D89300874AD3589F46802381
:103740009B001F4301321192EAE780235B001F4375
:1037500001321192E4E778280FD869280DD30200CE
:10376000693AD2B2012393407C4A13420FD11A0620
:1037700000D507E25B0500D594E16C1C5B462A008E
:103780004146B047119B0133119325001AE7782871
:103790000AD062283AD06F283BD058283CD010235A
:1037A0009F43063B9C4601E010239C46582836D098
:1037B000692803D0642801D00C2297437A0501D5EB
:1037C0000122974369282DD064282BD0BA0500D553
:1037D000A2E0FA0500D5C3E07A0600D4D5E01C9A31
:1037E000111D1C911168FF220A4005970B9B049341
:1037F0000394634602930023019300925B462A00E0
:1038000041463000FFF72FFA05002AE002239C46CC
:10381000CCE708239C46C9E710239C46C6E7202234
:103820001743C5E7BA0520D4FA0550D47A0666D501
:103830001C9A111D1C911168FF220A40D017111803
:10384000414005970B9B0493039463460293D20F68
:10385000019200915B462A0041463000FFF703FACF
:103860000500119B01331193ACE61C9A0732072126
:103870008A43110008311C91116853689946DB177F
:103880000C930D930C9A0D9B100048400E904A46E5
:1038900053400F930E980F990C9A0D9B801A9941E3
:1038A0000E900F9108970B9B079306946346049321
:1038B000002305934B46DA0F0292009001915B467C
:1038C0002A0041463000FFF72CFA0500C9E71C9A90
:1038D000111D1C911268D0171118414005970B9BC0
:1038E0000493039463460293D20F019200915B46C6
:1038F0002A0041463000FFF7B6F90500B1E73A0665
:1039000005D51C9A111D1C910023D25E96E71C9AC6
:10391000111D1C91126891E71C9A073207218A43F6
:10392000110008311C9108970B9B0793069463467E
:103930000493002305930293536812680092019345
:103940005B462A0041463000FFF7EBF9050088E7A7
:103950002C9C0010709C0010BC9C0010419000003A
:103960001C9A111D1C9105970B9B049303946346AD
:10397000029300230193136800935B462A0041469B
:103980003000FFF770F905006BE73A0606D51C9A80
:10399000111D1C9112681204120C26E71C9A111DAD
:1039A0001C91126821E7462819D01C9B0733072277
:1039B00093431A0008321C9204970B9A03920294C4
:1039C0001A685B68009201935B462A00414630000A
:1039D000FFF73EFC0500119B01331193F2E5202314
:1039E0001F43E2E7672801D0472802D180231B014B
:1039F0001F43452801D0472801D120231F431C9B8A
:103A00000733072293431A0008321C9204970B9A3B
:103A1000039202941A685B68009201935B462A0045
:103A200041463000FFF704FA0500119B0133119362
:103A3000C8E502231A003A4091463B421DD00124BA
:103A40001C9B1A1D1C926F1C18785B462A0041466D
:103A5000B0474B46002B14D1119B013311933D000D
:103A6000B0E5571C5B4641462020B04723003A0092
:103A70005C1C9D42F5D81500E2E701232A000B9D4E
:103A8000F6E73A00B1460B9E06E0571C5B464146FE
:103A90002020C8472C003A00651CA642F5D8170024
:103AA0004E46D9E71C9B1A1D1C921B689A46002C97
:103AB00025D101225242534601E001330A00197810
:103AC000002902D0511E002AF7D152469B1A8022AB
:103AD000D200390011408946174202D0A34200D9D2
:103AE000230002221100394010913A4209D02A00E5
:103AF000250057469A4633004E46994621E022005B
:103B0000D9E72A004546A04606E0541C5B4629003A
:103B10002020B0473B0022005F1C0B999942F4D84B
:103B20004446A8463B00250057469A4633004E4679
:103B3000994606E01D000137541C5B464146C847C4
:103B400022003878002804D0002EF4D06B1E002DFF
:103B5000F0D1150053464E46109A002A03D1119B0E
:103B6000013311932EE50B9F2A0006E0551C5B469E
:103B700041462020B04723002A005C1C9F42F5D814
:103B80001500ECE721233B431C9A111D1C91126880
:103B900005930823049303940833029300230193AD
:103BA00000925B462A0041463000FFF75CF80500B2
:103BB000119B0133119305E56C1C5B462A004146BD
:103BC0002520B047119B013311932500FAE40B4BDC
:103BD0009A46F5E4B2465D450DD35B465A1E5B46F8
:103BE00041460020D047280013B0F0BCBB46B24687
:103BF000A946A046F0BD2A00F1E7C046752A00108C
:103C000000B585B002900391012104480093130090
:103C10004A4202A9FFF7C6FC05B000BD772A001092
:103C200001480421014B1847800B0020513C001033
:103C300010B5010018231B8814221088984710BD66
:103C400010B5010018231B8816221088984710BD54
:103C5000F0B5C64600B507000E00002501239846C2
:103C600000E00135B5420AD2AC003C192068FFF7EC
:103C7000DFFF20600028F4D100239846F1E740469A
:103C800080BCB846F0BD0000124A936F9B0815D265
:103C90009066D166002905D0FFE7FFE7FFE7516F87
:103CA000106F704704B580210906C21751400028E3
:103CB00000D0C84304F0D4FF002104BDF0B5146E59
:103CC000556E576F166FFFF7E3FF1466556657671B
:103CD0001667F0BD000000D0114A936F9B0813D205
:103CE00010665166002905D0FFE7FFE7FFE7516F37
:103CF000106F704704B5002801D00020C04304F0C5
:103D0000AFFF002104BDC046F0B5146E556E576F6D
:103D1000166FFFF7E5FF1466556657671667F0BD27
:103D2000000000D094464A4A926F9208624601D23F
:103D300028E0C046F0B5464E346E756E776F366F2C
:103D400000F020F89446424A146655665767166795
:103D50006246F0BD94463E4A926F9208624601D296
:103D600054E0C046F0B53A4E346E756E776F366FDC
:103D700000F04CF89446364A146655665767166745
:103D80006246F0BD002B24DB11D000293EDA00B5DD
:103D9000C943404200D1013100F038F8C9434042E4
:103DA00000D10131DB43524200D1013300BD002A72
:103DB000EBD1002801D1002905D00020C90FC90787
:103DC00001D1C043410800B504F03AFF00220023AE
:103DD00000BD00B500290ADBDB43524200D10133AC
:103DE00000F014F8C943404200D1013100BDC9437D
:103DF000404200D10131DB43524200D1013300F097
:103E000005F8DB43524200D1013300BD002923D124
:103E1000002B18D1002A0CD0BC460D4F38667A66AC
:103E200000210023FFE7FFE7FFE77A6F386F67465F
:103E30007047002801D00748010000B504F000FFDA
:103E40000022002300BD02000B000020002170476B
:103E5000000000D0FFFFFFFF002B00D0BFE0130CDD
:103E600028D1002AE7D080B4114F39667A66FFE77F
:103E7000FFE730B4040C7B6F396F1B0423433B66B0
:103E80007A66FFE7FFE7FFE7C04684B27B6F3D6FCE
:103E90001B0423433B667A66FFE7FFE7C046002327
:103EA0002C042D0C7A6F386F00196941B0BC704733
:103EB000000000D0F0B594460025140E01D1120286
:103EC0000835140F01D112010435940F01D192006D
:103ED0000235D40F01D152000135D40B0134254FE6
:103EE0007C66254C3C660E0C93B2FFE7FFE7FFE7CC
:103EF0003C6F6643360C7703BE467343DF0B5B04AF
:103F0000C01AB941130C7343DB18C91ACE086643B3
:103F1000360CB64493B273431F0F1B01C01AB9414C
:103F2000130C73431F0B1B05C01AB941860D8F027A
:103F30003E436643360C092D24DB520A7243801A35
:103F40007703460A6643360C16235B1BDE40DF40D0
:103F5000BF1964466643821B704604350633010070
:103F6000D940A840C01900D30131A24206D2002393
:103F7000F0BD0000000000D0FFFFFFFF121B01306A
:103F8000F3D3F1E709277F1BFE406446A2B27243D8
:103F9000801A00D20139220C7243130C1204821AC7
:103FA00099410B007046043513370100F940A840D1
:103FB000801900D30131002B02D1A2420AD2F0BDF8
:103FC000013000D30131121BFAD2013BF8D1A242D9
:103FD00000D2F0BD013000D30131121BF7E7F0B57C
:103FE0001C0C00D080E00CB400251C0A04D11B027C
:103FF000160E3343120208351C0B04D11B01160F99
:104000003343120104359C0B04D19B00960F3343BC
:1040100092000235DC0B02D192185B4101351C0085
:10402000971864410134464F7C66464C3C660E0C42
:10403000FFE7FFE7FFE7C0463C6F6643360C7703B8
:10404000BE4697B27743C01B00D20139C01B00D2D5
:1040500001399FB27743C91BC91B170C77437E04F4
:10406000FF0B801BB941CE086643360C0C2D33DBA9
:10407000B644120B1F053A431B0B97B27743C01B84
:1040800000D201399FB27743C91B170C77433E0416
:104090003F0C801BB941860D8F023E4366432927A2
:1040A0007F1BFE400C3D7746AF40BF1930BCA2B22B
:1040B000ABB272437343801A9941220C7243130CC2
:1040C0001204801A994102000B000137001BA9411C
:1040D000F9D2781E0021F0BD0C277F1BFE407746E9
:1040E0007F0BAF40FF19E0E700245D1C07D0144FA1
:1040F0007D663966FFE7FFE7FFE7FFE73C6F95B2B4
:104100009EB265436643401BB141150C1E0C6543CE
:10411000664336042F0C3E432D04401BB1419942A7
:1041200004D202000B0020000021F0BD01D190421A
:10413000F7D3801A994101349942F2D3F6E700008F
:10414000000000D0FFFFFFFF48404140484018B446
:104150001B4B5B68FC46019308BD04DF6F440010F5
:1041600018B4174B1B68FC46019308BD00DF794467
:1041700000109446134A926F920809D2624618B40E
:104180000F4BDB68FC46019308BD0CDF3147001084
:104190000C4AF0B5146E556E576F166F6246FFF7F6
:1041A000EEFF084A1466556657671667F0BD18B4E7
:1041B000034B9B68FC46019308BD08DFD545001002
:1041C000281E0020000000D0FFB550404240504063
:1041D00059404B40594000E0FFB5154F4C00640D6D
:1041E00003D0BC4204D10C0314D80020090D0905EA
:1041F0005C00640D03D0BC4204D11C030AD8002229
:104200001B0D1B0501264B4009D44B4003D58B42A7
:1042100000D18242FFBD9942FCD19042FFBD0B43C9
:10422000DB1803431343F5D0C9434918FFBD000011
:10423000FF07000000B5FFF7CFFF804100BDC0467B
:1042400000B5FFF7C9FF01D9002000BD012000BD66
:1042500000B5FFF7B9FF01D9002000BD012000BD66
:1042600000B5FFF7B1FF804100BD012040054A00C5
:10427000121804D85A00121801D8002070470120E3
:1042800070470020704700000021002805D17047CA
:10429000C1174840401AFAD0C90713B5064B1B682E
:1042A00098470CBC441CA2401005120B0349091B83
:1042B00009051943114310BD281F00201F040000E9
:1042C00010B54C00620D8023D218DB00D21A5B05BA
:1042D0007E2A10DD9E3A13DACC17090349081943E8
:1042E0005242D140640001341532202A05DAD04010
:1042F0000843604310BD002010BD0846604310BD58
:10430000C80FC018013810BD18B4044B5B6AFC46D6
:10431000019308BD24DFE14800100000281E0020A2
:1043200018B4044BDB6FFC46019308BD7CDF614988
:1043300000100000281E002018B4044BDB6CFC4663
:10434000019308BD4CDF0D4B00100000281E00201B
:1043500018B4044B1B6DFC46019308BD50DFA94BFC
:1043600000100000281E002070B513231C78012CBB
:1043700012D0012C12DC214B214A93642148FFF713
:1043800057FC214B186070BD1C491D4A9800815094
:1043900001331F2BF8D9ECE70023FAE71B48FFF79E
:1043A0004FFC05001A48FFF74BFC023803789B00CE
:1043B0007F2B09DD12488022290001F015F8022C1C
:1043C00008D0022CDADCD6E7124B134A134832210C
:1043D000FEF7A0FA124B1A88B5231B029A4209D1A4
:1043E000104B1A88104B9A4204D1104B1A88104B6C
:1043F0009A42E6D00020FEF725FBC0463544001067
:10440000281E00204C330000281F002053440000C9
:1044100053460000189E0010B49E00106C9E0010C1
:1044200054380000D8380000494600009C3800008D
:104430005946000007B56046002800D100BE01883B
:104440000A0A0230DF2AFAD1C9B2820804D30288EC
:1044500040880004104300E00068024A5050039076
:1044600007BD0000281E00200FB403BC0CBCF0B533
:104470000124E407634000E0F0B50C0DCF0F661E89
:104480003605891B640503D3C943404200D301317B
:10449000640D03D0661CF60A07D0E41B00207F00E1
:1044A000791C89078912803C24031D0DDF0F6E1EC5
:1044B00036059B1B6D0503D3DB43524200D301330A
:1044C0006D0D03D06E1CF60A07D0ED1B00227F0095
:1044D0007B1C9B079B12803D2D032F1B661B58D412
:1044E000A446202E46DA20371400BC401D00BD40F3
:1044F000F24033412A4380185941CB0F05D0C943BC
:10450000C043002264425041514162464D0D28D1C2
:104510000D0D07D100281FD0241940414941013A0F
:104520000D0DF9D0640006D3013000D30131002C09
:1045300001D140084000013A0BD4941CE40A04D194
:1045400012051144DB071944F0BDD907204B19436C
:1045500000E0D9070020F0BD0029DDD1002CDBD11F
:10456000F0BD0132C6074008CD0728434908002E98
:10457000E1D0D9E73C2E29DA203E40371400BC4078
:1045800000D00124F24014431A00BB401C43D3174F
:10459000ACE7AC46202F08DA20360400B4400D000A
:1045A000B540F84039412843A5E73C2F0CDA203FBD
:1045B00040360400B44000D00124F8400443080011
:1045C000B1400C43C117EAE710001900002494E73A
:1045D0000000F07FF0B50C0D661E3605891BE60A5B
:1045E0006405640D02D0651CED0A04D00020012191
:1045F0000905803C2403A4461C0D671E3F05DB1BF8
:10460000E70A6405640D02D0651CED0A04D000229F
:1046100001231B05803C24037740644497B484B293
:1046200096B27443070C7E43150C6F4380B2684307
:10463000361802D3012000043F183004350C00194D
:104640007D41844688B29AB250430C0C62431F0CE1
:104650007C438EB27E43921902D301263604A419FC
:104660001604170C3618674101BC81B29AB2514347
:10467000040C62431B0C5C4380B25843121802D3F3
:104680000120000424181004130C401863412D1855
:104690005E410020474106BC88B293B258430C0CDF
:1046A0006343120C544389B251435B1802D3012176
:1046B0000904641819041A0C091862416D1856414E
:1046C0000020474118BCF902720D1143F0026A0D37
:1046D0001043ED020A0D03D16D1940414941013BE0
:1046E000124E9B1B7600B3420ED26D0007D30130F1
:1046F000002671416646354301D1400840001B0544
:10470000C918E4072144F0BD0BDA013306D10130AA
:1047100004D101314F0D01D04908F2E7E107002033
:10472000F0BD013631050020EBE70000FF0300007B
:10473000F0B51C0D671E3F05DB1BE70A6405640D21
:1047400002D0661CF60A04D0002201231B05803C1F
:104750002403D0252D060026F6432E661E096E661C
:10476000CE0FF619B44649004F0D02D07E1CF60A52
:1047700003D000200021403F3F033E1BB600B4445D
:10478000013F7F05C91B49082E6F013676089C0240
:10479000950D25437543ED137543AD1301356D102C
:1047A000F603761B0CB4CC02450D2C43A2B2B3B277
:1047B0005A43270C7B43350C6F43A4B26C431B193F
:1047C00002D3012424043F191C041D0CA4187D41AC
:1047D00024196D41009A91B2ACB26143170C7C432D
:1047E0002B0C5F4392B25A43A41802D30122120445
:1047F000BF182204230C52187B41019C6C431B19E7
:10480000520ED9010A434401A01A81B2B2B25143F7
:1048100003145A43360C734387B27743D617D21921
:1048200000277E4136049B191704160C7F185E4141
:104830007316ED18F301002680337541A90F06D1D8
:104840006400690AE8055B0A184309D22FE00422D4
:10485000944480337541A90AA8059B0A184326D3BE
:10486000404149412404009A019B0D005543641BBB
:104870004343E41A95B286B27543170C7E43030C8A
:104880005F4392B25A43B61802D301221204BF18F2
:104890003204330C52197B4152429C41002C02D409
:1048A0000022013051414008CA071043490802B0B4
:1048B0006246D7079210084BD218084B9A4203D28F
:1048C00012058918C919F0BD0020002A01DC390041
:1048D000F0BD01331905F5E7FD030000FE070000F8
:1048E000002200B5203200F004F8080000BD0000EE
:1048F00000220B150AD410B5944600F0A7F8141442
:10490000013400DA0021CB17144C2047002000218D
:1049100070476244343A0CD40C2A07DA0400914000
:10492000904052422032D440214310BDD843D94355
:1049300010BD203207D40C4694405242203211411F
:10494000D040204310BD0800C917203203D4524282
:104950002032104110BD1800190010BD134900107D
:104960004A00520D144BD21A13DDFF2A1EDAD2056B
:10497000CB0FDB071A43C300400F0903490A084362
:1049800010435B0001D301D0013070474308FBD2D4
:10499000704702D0C80FC00770470A0312130132D4
:1049A000F8D1420F072AF5D1012200E0FF22C80FFB
:1049B00000028018C00570478003000000210A0033
:1049C000002104E000210A00C11704E000220023B6
:1049D00006E0C0460022CB1758405940C01A994102
:1049E00030B5184CA21A002903D1010010D00020C4
:1049F000203A4C1512D104D2013A001849414C0D0D
:104A0000FAD3114CA24204D212058918DB07C91847
:104A100030BDD243520D00200021F5E703D4013A06
:104A200000184941FBD50B324405C00A4D05284307
:104A3000C90A640003D0002460416141E1E7E0D38A
:104A40004408F8E732040000FE0700000A0DCC0F0E
:104A5000531E1B05C91A520503D3C943404200D354
:104A60000131520D03D0531CDB0A07D0121B00206A
:104A70006400611C89078912803A1203014BD21A23
:104A800070470000FF030000023225D40C2A1CDA14
:104A90001125AD1A0B002B41083207350600EE40F8
:104AA000904091403143F0CC63431A1500235A41A2
:104AB000554356435743BF02F412760576196741B2
:104AC000ED177F19801BB94170470C220020C917D0
:104AD000490001310905DBE70902030E1943000211
:104AE0005342203208D40C0019419440D84020434E
:104AF00000225041514170470800C917203B203225
:104B0000F1D500200021002270470000F0B5FFF72A
:104B10009DFF54A4FFF7B8FF002904DA204C214D73
:104B200000196941013A04B4012752A60022012369
:104B30009B0730CEB446001BA9410BD47E422036E1
:104B40001D003D411C00B4401600FE40344362414C
:104B50006B4101E00019694166460137212FE8D118
:104B600085B29EB2754307147E43190C4F4384B23D
:104B70004C43F11736190024614109047F183404AD
:104B8000310C64197941A40F8800204389178018DB
:104B9000594104BC52423E32FFF71DFFF0BD0000F8
:104BA0006BDE73F4FD855C2CF0B54F0050D27F15A1
:104BB0004ED001374FD0FFF749FF04B44902C20D70
:104BC0001143400201272BA6B446002200237E4257
:104BD00020360D003D410C00B4400600FE40344339
:104BE00044414D41AE0F05D120002900664630CE2C
:104BF000121BAB410824A4440137212FE7D18900BF
:104C0000891012184B4180BC17A413CC013778438C
:104C100079437C434F05C912CD17C0196941A702DA
:104C2000A415CD17C9196C41DD17801859416C4185
:104C30003E22CD17AC4208D000090E0730430909C7
:104C4000260731432411043AF3E7FFF7C4FEF0BD11
:104C500002490020F0BD02490020F0BD0000F0FF35
:104C60000000F07FAAB800006BDE1300A3EF0F0076
:104C700021170B00F34B98BFEC23F319D6104DCD41
:104C8000E3FB470E7AB9BC8ADBC18907CC542C02FE
:104C90001846E103053083E7B029F8011E1FE087BD
:104CA0004505FE00249E41ACA9807F008117624526
:104CB00015E03F00E610ABA902F81F0088584555E3
:104CC00000FE0F00C4AAA90A80FF0700564555013F
:104CD000E0FF0300ABA92A00F8FF010045550500DD
:104CE000FEFF0000AAAA0080FF7F0000551500E02B
:104CF000FF3F0000AB0200F8FF1F0000550000FE60
:104D0000FF0F00000B0080FFFF0700000100E0FF25
:104D1000FF0300000000F8FFFF0100000000FEFF9D
:104D2000FF0000000080FFFF7F00000000E0FFFFA9
:104D30003F00000000F8FFFF1F00000000FEFFFF23
:104D40000F00000080FFFFFF07000000E0FFFFFFF3
:104D500003000000F8FFFFFF01000000FEFFFFFF5F
:104D60000000000000000080000000000000004083
:104D70000000000051434343C9188C46110C83B214
:104D80004B4310B4040C614392B280B2504362436F
:104D90001C041B0C001910BC59411304120CC01840
:104DA0005141614470470000484041404840002361
:104DB0009C46114B5B68184700239C460E4B1B68B2
:104DC00018470E4A936F9B0804D200239C460A4B57
:104DD000DB681847F0B5146E556E576F166FFFF706
:104DE000F4FF064A1466556657671667F0BD002340
:104DF0009C46014B9B6818472C1F0020000000D0E8
:104E000007B548404140484001E0C04607B5420070
:104E1000120E03D0FF2A03D1420218D8C00DC005DC
:104E20004A00120E03D0FF2A03D14A020FD8C90D3F
:104E3000C9050122414005D4414001D5814207BD49
:104E4000884207BD0143491801D0C043001807BD7F
:104E500000B5FFF7DBFF01D0002000BD012000BD41
:104E6000491A002808D1084670470000C10FC90739
:104E700000D54042002817D0F44603B40B4B1B6802
:104E8000984706BC81409E384042803107D20B06CD
:104E900007D04900490AC005104308436047013064
:104EA000F8E7490A8902F5E770470000281F00204B
:104EB00041000A0E80231B067E2A0BDD9E3A0BDA88
:104EC000C1174002400818435242D0404900013106
:104ED0004843704700207047C00FC0180138704722
:104EE000C0420DD300B540004008002100F012F888
:104EF000002801D4404200BD8020000600BD000013
:104F0000034BDB69FC4618471CDF515300100000BF
:104F10002C1F002000239C46014B5B6A18470000B1
:104F20002C1F0020034BDB6FFC4618477CDF6953C6
:104F3000001000002C1F0020C11504D400239C4643
:104F4000054B9B691847C843FF2801D1C00770472C
:104F5000C817C005704700002C1F002070B5132330
:104F60001E782A48FEF76CFE0500012E11D0012E96
:104F700009DDAB1E1B789B007F2B40DD244880227F
:104F8000290000F031FA2348FEF752FE224B186048
:104F900070BD1F485422290000F026FA1F4B1A88C2
:104FA0001F4B9A421CD1A7239B011A881D4B9A4282
:104FB00016D11D4B1A881D4B9A4211D11C4B1A88D1
:104FC00094239B019A420BD11A4B1A881A4B9A428E
:104FD00006D11A4B1A681A4B9A4201D1152307E0E1
:104FE0001848FDF72FFD184C094A99008C500133E1
:104FF0001F2BF8D9144B064A1362D361B7E7134B42
:10500000134A14484221FDF785FCC0465346000070
:105010002C1F00204C330000281F0020EE29000028
:10502000C40F0000C20D0000962B0000C0B50000A8
:10503000182B0000CC2A000010B50000FC2C00004A
:1050400051ED87645C9B00101D530010C89E00103A
:10505000449F0010FC9E0010C20DFF210B00134066
:1050600011420DD07F3B0DD41722D31A002B0BDD3C
:10507000163A9A401300013B034207D1012000E099
:10508000012070470020FCE70120FAE70020F8E744
:10509000C20DFF2313407F3B0DD41722D31A0CD42B
:1050A000163A9A40013A024209D1172B09D0D8404A
:1050B0000123184070470020FCE70020FAE7002099
:1050C000F8E70120F6E7C30DFF22110019401A424C
:1050D00005D0FF2905D040024342584170470020C7
:1050E000FCE70020FAE770B5051C0C0001290CD084
:1050F000C90F09194910FFF7F6FF011CFFF777FEEA
:10510000E40702D5291CFFF772FE70BD10B50C1E16
:1051100003DB2100FFF7E7FF10BD011CFE20800527
:10512000FFF74FFE6442F4E770B50E1CFFF7FAFE7E
:10513000FFF70EF904000D00301CFFF7F3FE02002C
:105140000B0020002900FFF732F8FFF7F5F8FFF712
:10515000E7F870BDF8B5041C0E1CC50F002816DA60
:10516000081CFFF795FF00280AD080231B06E018D3
:10517000311CFFF7EFFF80231B069C466044F8BDFF
:1051800080231B06E018311CFFF7E4FFF7E7081C3B
:10519000FFF78EFE0700201CFFF795FF00280AD1BD
:1051A000002F29D03B002033402B20D9311C201C5C
:1051B000FFF7BAFFE3E7E40DFF2020407F38FF2F21
:1051C00004DC0F4B9F4202DA0D4F00E0FF277843CB
:1051D00003007F33002B08DDFE2B04DCC005FE231B
:1051E0009B05C51801E0FF25ED05281CC7E7390020
:1051F000201CFFF78BFFC2E7FE208005BFE7C046FB
:1052000000FFFFFFF8B5041C0D1CFE218905FFF708
:105210001FFE00281CD1EE0DFF231F003740334234
:1052200016D03B49201CFFF713FE002801D0FF2FAA
:1052300058D0E30DFF22110019401A4216D1002D5B
:1052400009DB281CFFF724FF00284ED0201C01E0BA
:10525000FE208005F8BD281CFFF71AFF002846D065
:10526000E30FDB07FF20C0051843F3E7FF2B11D046
:10527000284A934212D0FF2E21D0264B9E4222D0A4
:10528000281CFFF7E9FE002822D1002C25DAFF2098
:10529000C005DFE7002D2DDA0020DBE7002D06DB5F
:1052A000281CFFF7F5FE002827D01B48D2E7281C52
:1052B000FFF7EEFE002823D080200006CAE77E29F3
:1052C00020DC0020C6E77E291FDCFF20C005C1E7E7
:1052D000291C201CFFF73EFFBCE7291C201CFFF700
:1052E00023FFB7E7FE208005B4E70020B2E7FF20E8
:1052F000C005AFE7FF20C005ACE7FF20C005A9E768
:105300000020A7E7FF20C005A4E70020A2E7C046D1
:10531000000080BFFF010000000080FF07B560466D
:10532000002800D100BE01880A0A0230DF2AFAD123
:10533000C9B2820804D3028840880004104300E008
:105340000068024A5050039007BD00002C1F002047
:105350000021C2158032803201D0024A104700205D
:1053600070470000CD2A0000C30FDB0741000A0E82
:1053700007D0FF2A08D00909054A891819434007B0
:1053800070471900002070470249C918FAE7000069
:10539000000000380000F07F10B5002804D040184D
:1053A000034B984200D810BD0248FDF74BFBC046A6
:1053B00000000420589F001070B5050002F096FF11
:1053C00004002900FFF7E8FF200070BD0148042118
:1053D000014B1847900B0020513C0010014B1B68FB
:1053E00018470000900B0020014B5B681847000035
:1053F000900B002010B50300080011001B689847AF
:1054000010BD0000F8B507000D001600437D002B0D
:1054100002D0002400200CE0036811002800984707
:105420002DE03B7D10E03B68154802219847601C49
:105430000134B44214DA002CF3DD2B19013B1B7844
:105440000D3B5A425341DBB22A5D0A2AF0D1002BB0
:10545000EED1A042E7DA3B68211A28189847E2E724
:10546000B04203DA3B68311A28189847002E06DD4F
:10547000AD19013D2B780D3B5A4253413B75F8BDA8
:10548000D89F001070B505000368002B16D00C4B98
:105490001C6805E0290004C92000FFF7B3FF246958
:1054A000002C09D02368002BF9D0064B1B68002B79
:1054B000F0D0A342F3D1EDE700232B6070BDC046CE
:1054C000C8190020D419002070B505000C000B6825
:1054D000802B05D023685A1C2260E418257170BD0A
:1054E0000800FFF7CFFFF5E710B5002B02DB0260E5
:1054F000436010BD024B034A03483F21FDF70AFAFF
:1055000024920010DC9F00104092001010B582B071
:105510000400FCF735FD02000B006846FFF7E4FFCE
:10552000009A019B22606360200002B010BD000061
:1055300070B582B0060014001D00FA22920000230C
:1055400006980021FFF716FC02000B0012196B41B0
:10555000002B09DB6846FFF7C7FF009A019B32600A
:105560007360300002B070BD01225242004BF1E77F
:10557000FFFFFF7F30B585B004000D0002A8FFF7E4
:10558000C5FF029A039B00952000FFF7D1FF200082
:1055900005B030BD00B583B0FA2189006846FFF739
:1055A000E9FF009A019B024803F07AFB03B000BDBB
:1055B0002811002010B5024803F03AFB10BDC04688
:1055C00028110020F0B5CE46474680B583B00600CE
:1055D0000D0090461C00FFF7DDFF81466B1C05D0D7
:1055E000002C08D0194F1A4B1C6807E0300003F05C
:1055F000A3F90500F4E7174FF5E72469002C17D04D
:105600002368002BF9D0144B1B68002B01D0A34258
:10561000F3D12A0031002000B8474346002BECD0DC
:105620006B46D91D0A230B7001222000B847E4E71E
:105630004B46002B07D16B1E9D41E8B203B0C0BCA6
:10564000B946B046F0BDFFF7B5FFF4E7F5530010DB
:10565000C819002005540010D4190020094A01E09F
:1056600010331A001368002B08D08342F8D10029A8
:1056700007D1036913600023036102E0002900D011
:1056800010607047C819002010B5064B1C6801E077
:1056900098472469002C03D06368002BF8D1F8E701
:1056A00010BDC046C819002070B5050003F044F9CC
:1056B00004000023012201002800FFF783FFFFF709
:1056C000E3FF200070BD000070B5A2B004000E0022
:1056D000FFF760FF0500002301930A483300220012
:1056E00001A9FEF78DFA040001A8FFF7CBFEFFF732
:1056F000CBFF002D02D1200022B070BDFFF75AFF72
:10570000F9E7C046C95400100FB400B583B004A92E
:1057100001C90191FFF7D8FF03B008BC04B01847D6
:1057200010B500F0AFF910BD70470000014B00222A
:105730001A7070475E2000204B79FF2B0CD18B79BB
:10574000002B0BD1CB79012B0AD1082A0AD98A78F0
:10575000054B1A70092000E0002070470020FCE78C
:105760000020FAE70020F8E75E20002001207047C3
:1057700070B504000D000348FEF75AFA0300290033
:10578000200098475542000010B5012926D1117913
:1057900053791B020B43124909788B4201D0002038
:1057A0001DE05378012B03D0022B10D0002016E00F
:1057B0009178D3781B021943DB0506D54B0A0120EB
:1057C00098407F231940FFF7D3FF0020F9E76422B8
:1057D00000210020FDF744F8012000E0012010BD69
:1057E0005E2000200123037000487047F49F0010E2
:1057F00010B50A784B781B0213438A7812041A43B7
:10580000CB781B0613439622D200934200D010BDE2
:1058100000210800FFF7ACFF024B1860024B196033
:105820007047C0462C1900203019002010B5002BFD
:1058300002DB0260436010BD024B034A03483F2174
:10584000FDF768F82492001084A000104092001028
:1058500010B582B00400FCF793FB02000B00684611
:10586000FFF7E4FF009A019B22606360200002B012
:1058700010BD000070B582B0060014001D00FA22B1
:105880009200002306980021FFF774FA02000B0033
:1058900012196B41002B09DB6846FFF7C7FF009A1E
:1058A000019B32607360300002B070BD0122524231
:1058B000004BF1E7FFFFFF7F30B585B004000D001E
:1058C00002A8FFF7C5FF029A039B00952000FFF78F
:1058D000D1FF200005B030BD10B582B0040004989F
:1058E000059912184B41002B09DB6846FFF79EFF14
:1058F000009A019B22606360200002B010BD01226B
:105900005242014BF1E7C046FFFFFF7F10B5024B4B
:105910001878FBF723FA10BD5F2000200268EFF330
:10592000108172B61368002BFCD0BFF35F8F41600B
:105930007047000070B50F4B1B68002B16D00D4C44
:105940002000FFF7EBFF0C4B00221A702168636800
:10595000BFF35F8F0A6083F3108800240025074B94
:105960001878FBF7FBF92000290070BDFA24A40089
:105970000025F4E7081E0020602000205F200020A2
:10598000F0B587B0040016001D000EAB1F7804A808
:10599000FFF75EFF049A059B0096019504A8FFF7A8
:1059A0009BFF049A059B02970D9901910C99009118
:1059B0002000FCF7C1F807B0F0BDF0B5C64600B551
:1059C00084B00500884616001F000AAB1C78FCF75F
:1059D0009DF80294019700962A004346FFF7D0FFF6
:1059E00004B080BCB846F0BD10B582B019480021A3
:1059F00003F03EF9002822D1174B1B68002B26D05C
:105A0000154C2000FFF78AFF144A137801214B4000
:105A1000DBB20121117021686268BFF35F8F002043
:105A2000086082F31088002B11D00D4A01230093E7
:105A30000023FA2080000021FFF7BFFF07E00120CC
:105A40000021404201F090F8024803F0F1F802B062
:105A500010BDC04630200020081E0020602000201D
:105A60003559001010B5054B1868002804D0044BB8
:105A70001968002200F0A2FD10BDC0462C190020BC
:105A80003019002010B582B0D0231B061C68FCF72B
:105A90003DF8FCF74BF9A0422CD1234B1B7801F0C9
:105AA00031FD2248FBF78BFC0120FBF705FC204C65
:105AB00020702049FF231840FBF77EF92078012150
:105AC000FBF740F90520FBF761F9041E18D01A49CD
:105AD00000220520FBF79CF9FBF774F80100174B37
